:020000040800F2
:1000000038080020F94900089531000897310008A8
:100010009B3100089F310008A33100080000000058
:10002000000000000000000000000000A7310008F0
:10003000A931000800000000AB310008AD31000814
:10004000134A0008134A0008134A0008134A00081C
:10005000134A0008134A0008134A0008B34800086E
:10006000134A0008134A0008134A0008134A0008FC
:10007000134A0008134A0008134A0008134A0008EC
:10008000134A0008134A0008134A0008134A0008DC
:10009000134A0008134A0008134A0008134A0008CC
:1000A000134A000815480008134A0008134A0008BC
:1000B000134A00084128000851280008134A000884
:1000C000134A0008134A0008134A0008134A00089C
:1000D000134A0008134A0008134A00088B39000825
:1000E000134A0008134A0008134A0008DFF80CD02E
:1000F00008F042F800480047812600083808002030
:1001000031490143314A1160704770B50021002325
:100110000F22C47804B32D4C246804F4E064C4F5C1
:10012000E064210AC1F10403CA40447804FA03F1EF
:100130008478144021430901254C0678A1550478A0
:1001400004F01F050124AC4005786D11AD0005F1E8
:10015000E025C5F8004109E0047804F01F050124FA
:10016000AC401C4D0678761145F8264070BD1A4A01
:100170000A400243154B1B1F1A60704739B1134ADE
:10018000121D12680243114B1B1D1A6006E00F4A34
:10019000121D126882430D4B1B1D1A607047042804
:1001A00008D14FF0E021096941F004014FF0E0224D
:1001B000116107E04FF0E021096921F004014FF0DF
:1001C000E0221161704700000000FA050CED00E02C
:1001D00000E400E080E100E080FFFF1F00204449D0
:1001E0000860091D0860091D0860091D0860414874
:1001F0003F4914310860704700213D498279002A47
:100200003AD00A46126803689A430B461A600A1DE0
:10021000126803689A430B1D1A60027911440A6838
:1002200003681A430A60324A0832126803689A4324
:100230002F4B08331A601A1D126803689A432C4B1F
:100240000C331A604279102A0ED11A1F1268036803
:100250001A43274B08331A601A1D126803681A43A1
:10026000234B0C331A600DE02149427911440A688E
:1002700003681A430A6005E0027911440A680368BA
:100280009A430A6070470021016001710C2141719D
:100290000021817170471649103109680143144AE1
:1002A00010321160704701460020114A1432126862
:1002B0000A400AB1012000E0002070470C491431C7
:1002C00008607047014600200022094B1B6803EAC2
:1002D0000102074B14331B680B4013B10AB1012014
:1002E00000E00020704702491431086070470000A8
:1002F00000040140FFFF0F0010B50446CC488442C3
:1003000008D10121042000F02DFB0021042000F081
:1003100029FB46E0C748844208D10121082000F0AB
:1003200021FB0021082000F01DFB3AE0C248844276
:1003300008D10121102000F015FB0021102000F051
:1003400011FB2EE0BD48844208D10121202000F09D
:1003500009FB0021202000F005FB22E0B848844280
:1003600008D10121402000F0FDFA0021402000F0DA
:10037000F9FA16E0B348844208D10121802000F048
:10038000F1FA0021802000F0EDFA0AE0AE48844244
:1003900007D10121801500F0E5FA0021A01500F039
:1003A000E1FA10BD10B50121084600F0DBFA00218A
:1003B000012000F0D7FA10BD2DE9F04102460025DA
:1003C0000026002000230024002791F803C00CF031
:1003D0000F0591F803C00CF0100CBCF1000F03D016
:1003E00091F802C04CEA050591F800C0BCF1000F7D
:1003F00031D0146800202BE04FF0010C0CFA00F310
:10040000B1F800C00CEA03069E4220D183004FF0F1
:100410000F0C0CFA03F7BC4305FA03FC4CEA040486
:1004200091F803C0BCF1280F06D14FF0010C0CFA73
:1004300000FCC2F814C00AE091F803C0BCF1480FF8
:1004400005D14FF0010C0CFA00FCC2F810C0401CA2
:100450000828D1D31460B1F800C0BCF1FF0F34DD1F
:10046000546800202EE000F1080C4FF0010808FA53
:100470000CF3B1F800C00CEA03069E4221D18300C0
:100480004FF00F0C0CFA03F7BC4305FA03FC4CEADF
:10049000040491F803C0BCF1280F05D100F1080C49
:1004A00008FA0CF8C2F8148091F803C0BCF1480FA8
:1004B00007D100F1080C4FF0010808FA0CF8C2F857
:1004C0001080401C0828CED35460BDE8F0814FF660
:1004D000FF710180022181700421C17070470246C2
:1004E000002093680B400BB1012000E00020704712
:1004F0000146886880B2704702460020D3680B40EE
:100500000BB1012000E0002070470146C86880B2AE
:10051000704701617047416170470AB1016100E0B5
:1005200041617047C16070474FF480320A43826175
:100530008161826182698269704702460020434B73
:1005400018684FF68073184040EA021008433F4B8A
:10055000186070473E49C8617047F0B50A460023ED
:1005600000240021002500F00046B6F1004F02D122
:10057000364EF16901E0354E7168C0F3034583B230
:1005800000F44016B6F5401F08D121F070612F4EDF
:10059000766826F070662D4F7E6012E000F48016BB
:1005A000B6F5801F06D1032606FA05F4A14341F0F3
:1005B000706106E0460D360103FA06F6B14341F0DC
:1005C000706122B1460D360103FA06F6314300F0A0
:1005D0000046B6F1004F02D11C4EF16101E01B4E06
:1005E0007160F0BD30B500228B071C0F0F2303FA9A
:1005F00004F2164B08338C1053F824309343134CF9
:1006000008348D1044F8253023468C1053F82430DC
:100610008C07240F00FA04F423430C4C08348D108B
:1006200044F8253030BD0A49DC31086070470000CD
:1006300000080140000C014000100140001401407E
:1006400000180140001C0140002001400000014052
:1006500000002042DF48006840F00100DD490860EA
:1006600008464068DC490840DA49486008460068A6
:10067000DA490840D74908600846006820F480201D
:1006800008600846406820F4FE0048604FF41F00F0
:1006900088607047CF49096821F48031CD4A1160E4
:1006A0001146096821F480211160B0F5803F03D024
:1006B000B0F5802F0ED106E0C649096841F48031BB
:1006C000C44A116007E0C349096841F4A021C14A46
:1006D000116000E000BF00BF704710B50146002266
:1006E000002300204A11012A02D1BA4C236806E0F7
:1006F000022A02D1B74C236A01E0B64C636A01F0CA
:100700001F02012494401C400CB1012000E0002095
:1007100010BD38B5002000900024002500BF312016
:10072000FFF7DBFF05460098401C00900098B0F5ED
:10073000A06F01D0002DF2D03120FFF7CEFF08B11D
:10074000012400E00024204638BD01460020A14AD3
:10075000106820F0F80040EAC10010607047A0491E
:1007600008607047024600209A4B586820F47C10BD
:1007700042EA01031843974B58607047984908664E
:10078000704701460020934A506820F00300084358
:10079000506070478F48406800F00C007047014679
:1007A00000208C4A506820F0F000084350607047E9
:1007B00001460020874A506820F4E06008435060FA
:1007C000704701460020834A506820F4605040EA98
:1007D000C1005060704729B17E4A527A02437D4B76
:1007E0005A7204E07B4A527A82437A4B5A727047BB
:1007F0007B49D8310860704701460020754A50682F
:1008000020F440400843506070470021714A203274
:100810001170704A82F82010012802D004280AD1F1
:1008200004E001216B4A2032117005E00521694A7C
:100830002032117000E000BF00BF704769490860B6
:1008400070476449096A0143624A11627047654909
:1008500044390860704730B500210022002400238D
:100860005C4D6D6805F00C0121B1042905D0082903
:1008700023D105E05C4D056022E05B4D05601FE083
:10088000544D6D6805F47012524D6D6805F4803456
:10089000022505EB92421CB9544D554305600BE00F
:1008A0004C4D6D6805F400351DB1504D5543056044
:1008B00002E04D4D5543056002E04B4D056000BF21
:1008C00000BF444D6D6805F0F0010909484D6B5CAF
:1008D0000568DD4045603F4D6D6805F4E061090A3B
:1008E000434D6B5C4568DD4085603A4D6D6805F4AD
:1008F0006051C90A3E4D6B5C4568DD40C560354DB1
:100900006D6805F44041890B3A4D6B5CC568B5FBD9
:10091000F3F5056130BD29B12E4A526902432D4BD2
:100920005A6104E02B4A526982432A4B5A6170474C
:1009300029B1284A92690243264B9A6104E0254A6C
:1009400092698243234B9A61704729B1214AD26947
:100950000243204BDA6104E01E4AD26982431D4BF8
:10096000DA61704729B11B4AD2680243194BDA6039
:1009700004E0184AD2688243164BDA60704729B106
:10098000144A12690243134B1A6104E0114A1269B6
:100990008243104B1A617047124940390860704712
:1009A0000F49C86470470B49C87170470948406ACD
:1009B00040F0807007494862704701460020054AB0
:1009C00092680A400AB1012000E000207047014906
:1009D00088727047001002400000FFF8FFFFF6FE2B
:1009E000000042428004424200127A0000093D00A9
:1009F000000000201000002010B50446FE4884428C
:100A000008D10121C014FFF7ADFF0021E014FFF76A
:100A1000A9FFC4E0B4F1804F08D101210846FFF7D7
:100A2000AEFF00210120FFF7AAFFB8E0F34884429F
:100A300008D101210220FFF7A2FF00210220FFF7C9
:100A40009EFFACE0EE48844208D101210420FFF76C
:100A500096FF00210420FFF792FFA0E0E9488442BE
:100A600008D101210820FFF78AFF00210820FFF7A5
:100A700086FF94E0E448844208D101211020FFF76A
:100A80007EFF00211020FFF77AFF88E0DF488442D4
:100A900008D101212020FFF772FF00212020FFF75D
:100AA0006EFF7CE0DA48844208D101214014FFF750
:100AB00059FF00216014FFF755FF70E0D5488442CC
:100AC00009D10121C804FFF74DFF00214FF4002098
:100AD000FFF748FF63E0D048844209D101210805AF
:100AE000FFF740FF00214FF48010FFF73BFF56E077
:100AF000CA48844209D101214805FFF733FF00218C
:100B00004FF40010FFF72EFF49E0C548844208D19A
:100B100001214020FFF733FF00214020FFF72FFF86
:100B20003DE0C048844208D101218020FFF727FF23
:100B300000218020FFF723FF31E0BB48844208D129
:100B400001218015FFF71BFF0021A015FFF717FFFC
:100B500025E0B648844209D101210804FFF702FFCD
:100B600000214FF48030FFF7FDFE18E0B0488442CA
:100B700009D101214804FFF7F5FE00214FF40030B0
:100B8000FFF7F0FE0BE0AB48844208D10121880456
:100B9000FFF7E8FE00214FF48020FFF7E3FE10BDD1
:100BA00000220288944B98420ED0994B98420BD069
:100BB000B0F1804F08D0914B984205D0904B9842AD
:100BC00002D0904B984204D14FF68F731A404B8855
:100BD0001A438D4B984207D08C4B984204D04FF665
:100BE000FF431A40CB881A4302808B8883850B8889
:100BF0000385814B98420BD0854B984208D08B4B94
:100C0000984205D08A4B984202D08A4B984201D133
:100C10000B7A038601238382704770B5002400227B
:100C20000023058C4FF6FE7635400584028C8388C0
:100C3000048B4FF68F752C40B51E2C400D882C432D
:100C4000751E2A400D892A434D882A436A4DA842C1
:100C50000BD06F4DA84208D0744DA84205D0744DFA
:100C6000A84202D0734DA84213D14FF6F7752A401F
:100C70004D892A434FF6FB752A408D882A434FF64B
:100C8000FF652B404FF6FF552B408D892B43CD89B7
:100C90002B4383800483CD888586028470BD70B524
:100CA000002400220023058C4FF6EF7635400584A2
:100CB000028C8388048B48F6FF752C404FF6FF4565
:100CC0002C400D884FF6FF7606EA05252C434FF69B
:100CD000DF752A400D8906EA05152A434D8806EA84
:100CE00005152A43444DA84202D0494DA8421DD1C2
:100CF0004FF67F752A404D894FF6FF7606EA0515B7
:100D00002A434FF6BF752A408D8806EA05152A4307
:100D10004FF6FF352B404FF2FF752B408D8906EAC9
:100D200085052B43CD8906EA85052B438380048303
:100D3000CD880587028470BD70B500240022002391
:100D4000058C4FF6FF6635400584028C8388848BC2
:100D50004FF68F752C404FF6FC752C400D882C43B8
:100D60004FF6FF552A400D894FF6FF7606EA052516
:100D70002A434D8806EA05252A431F4DA84202D082
:100D8000234DA8421DD14FF2FF752A404D894FF6E1
:100D9000FF7606EA05252A434FF6FF352A408D885F
:100DA00006EA05252A434EF6FF752B404DF6FF75E2
:100DB0002B408D8906EA05152B43CD8906EA0515DA
:100DC0002B4383808483CD888587028470BD70B572
:100DD000002200230024058C4EF6FF763540058462
:100DE000038C8488828B48F6FF752A404FF6FF45B6
:100DF0002A400D8820E00000002C01400004004043
:100E000000080040000C00400010004000140040AA
:100E100000340140004C01400050014000540140AA
:100E200000180040001C004000200040004001402D
:100E300000440140004801404FF6FF7606EA0525D0
:100E40002A434DF6FF752B400D8906EA05352B43E5
:100E50004D8806EA05352B43FA4DA84202D0FA4DDB
:100E6000A84208D14BF6FF752C408D894FF6FF76CE
:100E700006EA85152C4384808283CD88A0F84050F3
:100E8000038470BD828B4FF2FF331A408283828BC2
:100E90004FF6FF7303EA01231A4382837047F0B5CC
:100EA0000C461546002200210026078C4EF6FF7CDA
:100EB00007EA0C070784828B018C4FF6FF7707EA5D
:100EC000043640F6FF473A404FF6FF7707EA05271A
:100ED0003A434FF6FF7707EA03373A43D94FB84210
:100EE0000ED0D94FB8420BD0B0F1804F08D0D74FB9
:100EF000B84205D0D64FB84202D0D64FB84206D13C
:100F00004DF6FF77394046F48057394305E047F600
:100F1000FF57394044F48057394382830184F0BD40
:100F2000828B4FF6F3731A408283828B0A4382834B
:100F30007047F0B50C461546002200210026078CAC
:100F40004FF6FF6C07EA0C070784828B018C4FF683
:100F5000FF7707EA04264FF60C773A404FF6FF7703
:100F600007EA03172F433A43B64FB8420ED0B64FA5
:100F7000B8420BD0B0F1804F08D0B44FB84205D082
:100F8000B34FB84202D0B34FB84206D14FF6FF5725
:100F9000394046F48077394305E04FF2FF57394036
:100FA00044F48077394382830184F0BD028B4FF291
:100FB000FF331A400283028B4FF6FF7303EA0123CB
:100FC0001A4302837047F0B50C46154600220021F3
:100FD0000026078C4FF6EF7C07EA0C070784028B8C
:100FE000018C4FF6FF7707EA041640F6FF473A40B8
:100FF0004FF6FF7707EA03373A434FF6FF7707EAE2
:1010000005273A438F4FB8420ED08F4FB8420BD0CE
:10101000B0F1804F08D08D4FB84205D08C4FB84208
:1010200002D08C4FB84206D14FF6DF77394046F0F8
:101030001007394305E04FF65F77394044F0100759
:10104000394302830184F0BD028B4FF6F3731A40DB
:101050000283028B0A4302837047F0B50C461546A3
:1010600000220021068C4FF6FE773E400684028B5C
:10107000018C4FF60C7632407E1C06EA03162E4396
:101080003243704EB0420ED06F4EB0420BD0B0F132
:10109000804F08D06D4EB04205D06D4EB04202D0A8
:1010A0006C4EB04206D14FF6FD76314044F0010659
:1010B000314305E04FF6F576314044F00106314307
:1010C00002830184F0BD70B505460C465D4885423B
:1010D0000ED05D4885420BD0B5F1804F08D05B48FB
:1010E000854205D05A48854202D05A48854200D1EF
:1010F00000E000BF208850B92389A2886188284673
:10110000FFF7ABFFE1882846FFF79EFF25E0208828
:1011100004280AD12389A28861882846FFF753FF53
:10112000E1882846FFF742FF17E0208808280AD107
:101130002389A28861882846FFF7FBFEE1882846BC
:10114000FFF7EEFE09E02389A28861882846FFF7B1
:10115000A6FEE1882846FFF795FE70BD2DE9F04117
:1011600005460C4600260127608808B9022600E0E3
:101170000026A088012801D1022700E0012720884D
:10118000A0B92389A28861882846FFF766FFE18815
:101190002846FFF759FF23893A4631462846FFF78C
:1011A00012FFE1882846FFF701FF13E02389A28898
:1011B00061882846FFF707FFE1882846FFF7F6FE1B
:1011C00023893A4631462846FFF747FFE1882846FB
:1011D000FFF73AFFBDE8F0810A884B881A438B88F5
:1011E0001A43CB881A430B891A434B891A438B89BC
:1011F0001A43A0F8442070474FF6FF718180002108
:101200000180C180418001727047002101804180CE
:101210008180C180018141818181C181704700212C
:1012200001804180012181800021C18001817047BE
:101230000021018041808180C180018141818181C3
:1012400070470000002C01400034014000040040C1
:1012500000080040000C004021B1028842F0010269
:10126000028004E002884FF6FE731A400280704745
:1012700031B1B0F8442042F40042A0F8442005E027
:10128000B0F84420C2F30E02A0F8442070471AB10F
:1012900083890B43838102E083898B438381704779
:1012A0008182704741EA0203A0F8483070471AB1C2
:1012B00083890B43838102E083898B438381704759
:1012C00001894FF6F8721140018170470A460021EA
:1012D00001894FF68F73194011430181704730B572
:1012E00004460D4629462046FFF7F0FF208940F0CE
:1012F0000700208130BD2DE9F04104460D46164619
:101300001F46602D06D13B46012231462046FFF79D
:101310005AFE05E03B46012231462046FFF79DFE7E
:1013200029462046FFF7D2FF208940F007002081A0
:10133000BDE8F08130B50C4600210189C9B24FF6F5
:10134000FF7505EA0325154325432943018130BD77
:101350002DE9F04105460E461746984600244346BF
:101360003A4631462846FFF7E5FF2C894FF6F870DC
:10137000044044F007044FF68F70044044F07004BA
:101380002C81BDE8F081F0B504460D4616461F4697
:101390003B46324629462046FFF7CCFF208940F4E1
:1013A00080402081F0BD0185828270470A4600217D
:1013B00001884FF68F731940114301807047F0B5D3
:1013C0000C4615461E460021002200230189028B8F
:1013D000038C4FF6F877394021434FF6FC473A40EB
:1013E00040F201173A434FF6DD773B404FF6FF7767
:1013F00007EA06172F433B43018102830384F0BDB4
:101400000A460021018B4FF68F7319401143018367
:1014100070470A460021018B48F6FF7319404FF6CA
:10142000FF7303EA02231943018370470A46002130
:10143000818B4FF68F7319401143818370470A46A1
:101440000021818B48F6FF7319404FF6FF7303EAC2
:10145000022319438183704721B1028842F0800240
:10146000028004E002884FF67F731A4002807047C2
:1014700021B1828842F00402828004E082884FF623
:10148000FB731A408280704721B1828842F00802C3
:10149000828004E082884FF6F7731A40828070479A
:1014A00021B1828842F00102828004E082884FF6F6
:1014B000FE731A40828070470A460021018B4FF666
:1014C000F77319401143018370470A460021018BCD
:1014D0004FF2FF7319404FF6FF7303EA02231943DB
:1014E000018370470A460021818B4FF6F77319403C
:1014F0001143818370470A460021818B4FF2FF73AD
:1015000019404FF6FF7303EA0223194381837047A2
:101510000A460021018B4FF6FB73194011430183EA
:1015200070470A460021018B4FF6FF3319404FF6F2
:10153000FF7303EA02231943018370470A4600211F
:10154000818B4FF6FB7319401143818370470A4624
:101550000021818B4FF6FF3319404FF6FF7303EAEA
:1015600002231943818370470A460021018B4FF6FD
:101570007F7319401143018370470A460021018B94
:10158000C1F30E014FF6FF7303EA022319430183EF
:1015900070470A460021818B4FF67F731940114333
:1015A000818370470A460021818BC1F30E014FF6FB
:1015B000FF7303EA02231943818370470A4600211F
:1015C000018C4FF6FD7319401143018470470A46A0
:1015D0000021018C4FF6F7731940114301847047C5
:1015E0000A460021018C4FF6DF7319404FF6FF7356
:1015F00003EA02131943018470470A460021018C53
:101600004FF67F7319404FF6FF7303EA0213194335
:10161000018470470A460021018C4FF6FF531940A0
:101620004FF6FF7303EA02231943018470470A4609
:101630000021018C4FF2FF7319404FF6FF7303EA4C
:1016400002231943018470470A460021018C4DF69C
:10165000FF7319404FF6FF7303EA02331943018405
:10166000704730B5002301248C40A3B2048C9C4306
:101670000484048C02FA01F5ADB22C43048430BD1D
:1016800030B5002304248C40A3B2048C9C43048412
:10169000048C02FA01F5ADB22C43048430BD70B560
:1016A0000346002000241846183001258D40ACB2B6
:1016B0001D8CA5431D8409B1082909D100EB6100E7
:1016C000056825F0700505600568154305600EE0A6
:1016D0000D1FC5F34E052844056825F4E045056057
:1016E00005684FF6FF7606EA02263543056070BDB1
:1016F00021B1028842F00202028004E002884FF623
:10170000FD731A400280704721B1028842F0040242
:10171000028004E002884FF6FB731A400280704793
:1017200021B1828842F08002828004E082884FF6F4
:101730007F731A408280704702884FF6F7731A4011
:10174000028002880A430280704782884FF68F73B6
:101750001A40828082880A438280704702894FF64D
:10176000F8731A40028102890A4302817047028994
:101770004FF67F731A40028102890A430281704743
:1017800081847047818570478186704701877047E3
:1017900081877047A0F84010704702884FF6FF43DA
:1017A0001A40028002880A43028070470146888EF0
:1017B00070470146088F70470146888F7047014681
:1017C000B1F8400070470146888C70470146088D8B
:1017D000704702460020138A0B400BB1012000E045
:1017E00000207047CA430282704730B5024600208D
:1017F00000230024158A05EA0103958905EA0104FE
:1018000013B10CB1012000E0002030BDCA430282B8
:101810007047000010B50446FB48844209D10121FD
:101820008803FFF79FF800214FF48040FFF79AF8F4
:1018300032E0F648844209D101214804FFF79FF8BD
:1018400000214FF40030FFF79AF825E0F048844279
:1018500009D101218804FFF792F800214FF480207C
:10186000FFF78DF818E0EB48844209D10121C80444
:10187000FFF785F800214FF40020FFF780F80BE018
:10188000E548844208D101210805FFF778F80021D6
:101890004FF48010FFF773F810BD2DE9F04786B0C4
:1018A00005460E460024A24600BFA1460027B08987
:1018B00000B100BF2F462C8A4CF6FF700440F08820
:1018C00004432C82AC894EF6F3100440B088318971
:1018D0000843718908430443AC81AC8A4FF6FF404A
:1018E0000440B0890443AC8201A8FEF7B4FFC648A7
:1018F000874202D1DDF810A001E0DDF80CA0A88934
:1019000000F4004040B10AEBCA0000EB0A10316855
:101910004900B0FBF1F807E00AEBCA0000EB0A103F
:1019200031688900B0FBF1F86420B8FBF0F00401E5
:101930002009642101FB1089A88900F4004040B10E
:10194000322000EBC900B0FBF1F000F007000443C7
:1019500008E0322000EB09106421B0FBF1F000F048
:101960000F0004432C8106B0BDE8F0874FF41651F8
:10197000016000218180C18001810C214181002111
:101980008181704710B502460020108A4FF2FF0394
:1019900018400B884C8823438C882343CC882343EE
:1019A0001843108210BD0021018041808180C180D8
:1019B000704721B1828942F40052828104E0828919
:1019C0004DF6FF731A4082817047F0B5034600243C
:1019D00000260025002040F66A17B94200D100BF5A
:1019E0001846C1F3421401F01F06012707FA06F555
:1019F000012C01D10C3004E0022C01D1103000E0A8
:101A000014301AB107682F43076002E00768AF433C
:101A10000760F0BD1AB1838A0B43838202E0838A98
:101A20008B4383827047028A4FF6F0731A4002821A
:101A3000028A0A430282704782894FF2FF731A407A
:101A4000828182890A438281704721B1828942F072
:101A50000202828104E082894FF6FD731A4082817E
:101A60007047028A4FF6DF731A400282028A0A43E5
:101A70000282704721B1028A42F48042028204E06D
:101A8000028A4BF6FF731A4002827047C1F30802C4
:101A90008280704701468888C0F3080070478189BA
:101AA00041F0010181817047028BD2B20283028B27
:101AB00042EA012202837047028B02F47F420283D2
:101AC000028B0A430283704721B1828A42F02002CE
:101AD000828204E0828A4FF6DF731A408282704766
:101AE00021B1828A42F01002828204E0828A4FF69B
:101AF000EF731A408282704721B1828A42F0080255
:101B0000828204E0828A4FF6F7731A40828270471D
:101B100021B1828942F40042828103E08289C2F3CA
:101B20000E028281704721B1828A42F40062828271
:101B300004E0828A4FF2FF731A4082827047828AE1
:101B40004FF6FB731A408282828A0A438282704770
:101B500021B1828A42F00202828204E0828A4FF638
:101B6000FD731A408282704702460020B1F5007F63
:101B700000D100BF13880B400BB1012000E0002012
:101B8000704701F40072B2F5007F00D100BFCA4374
:101B90000280704770B50246002400230025002013
:101BA00040F66A16B14200D100BFC1F3421501F000
:101BB0001F03012606FA03F3012D02D19689334053
:101BC00006E0022D02D1168A334001E0968A3340A6
:101BD0000C12012606FA04F41688344013B10CB135
:101BE000012000E0002070BD10B50022002340F667
:101BF0006A14A14200D100BF0A1201249440A3B28A
:101C0000DC43048010BD0000003801400044004067
:101C100000480040004C00400050004010B5044611
:101C2000FA48844208D101214015FEF79BFE0021AD
:101C30006015FEF797FE17E0F548844208D10121B0
:101C40000015FEF78FFE00212015FEF78BFE0BE03E
:101C5000F048844208D10121C803FEF783FE002129
:101C60004FF40040FEF77EFE10BD30B50246002066
:101C700000235068E84C20400D790C6844EA0524A4
:101C8000204350609068E54C2040D1E902542C4339
:101C90004D7944EA450420439060D06A20F47000F6
:101CA0000C7C641EE4B2234340EA0350D06230BD92
:101CB00000210160017141718160C16001210174E5
:101CC000704721B1826842F00102826003E08268BD
:101CD00022F001028260704721B1826842F4807272
:101CE000826003E0826822F480728260704710B5DF
:101CF0000023CBB21AB144681C43446002E044683C
:101D00009C43446010BD816841F0080181607047C8
:101D1000014600208A6802F008020AB1012000E0B2
:101D200000207047816841F00401816070470146DE
:101D300000208A6802F004020AB1012000E00020BD
:101D4000704721B1826842F4A002826003E0826899
:101D500022F4A00282607047014600208A6802F4E3
:101D600080020AB1012000E00020704710B50A4649
:101D700000210023416821F46041531E41EA4331B0
:101D8000416010BD21B1426842F40062426003E04C
:101D9000426822F4006242607047F0B504460D4686
:101DA00000200021092D11DDE068A5F10A0606EBEF
:101DB0004607072606FA07F18843A5F10A0606EB4F
:101DC000460603FA06F10843E0600CE0206905EBE3
:101DD0004507072606FA07F1884305EB450603FA8F
:101DE00006F108432061072A0FDA606B561E06EBE6
:101DF00086071F2606FA07F18843561E06EB86065D
:101E000005FA06F10843606322E00D2A0FDA206B21
:101E1000D61F06EB86071F2606FA07F18843D61F52
:101E200006EB860605FA06F10843206310E0E06A37
:101E3000A2F10D0606EB86071F2606FA07F1884376
:101E4000A2F10D0606EB860605FA06F10843E062EC
:101E5000F0BD21B1826842F48012826003E08268A2
:101E600022F48012826070470146C86C80B27047CD
:101E700066484C300068704721B1426842F4806285
:101E8000426003E0426822F480624260704721B100
:101E9000426842F48052426003E0426822F4805279
:101EA000426070470A460021816821F4E0411143F5
:101EB0008160704721B1826842F40042826003E091
:101EC000826822F400428260704721B1826842F445
:101ED0000212826003E0826822F40212826070477C
:101EE000014600208A6802F400120AB1012000E0D5
:101EF00000207047F0B50446154600200022002659
:101F0000092911DDE068A1F10A0707EB470C072753
:101F100007FA0CF29043A1F10A0707EB470703FA0F
:101F200007F21043E0600CE0206901EB410C072749
:101F300007FA0CF2904301EB410703FA07F2104352
:101F40002061A06BC0F30156EF1C06F1010CA7EB5A
:101F50000C0707EB870C1F2707FA0CF29043EF1CC6
:101F600006F1010CA7EB0C0707EB870701FA07F254
:101F70001043A063F0BD10B50A4600210023816B19
:101F800021F44011531E41EA0351816310BD08B58D
:101F9000002300930090009B0B440093009B1A6069
:101FA00008BD08B5024600200090009201F128000B
:101FB000009B184400900098006880B208BD0A4653
:101FC00000214168164B194011434160704741623E
:101FD000826270470A460021416821F01F011143C7
:101FE0004160704740B109490831096841F4000176
:101FF000064A0832116007E004490831096821F4F3
:102000000001024A083211607047000000240140BC
:1020100000280140003C0140FFFEF0FFFDF7F1FF0A
:10202000FFFD3FFF0246002013680B400BB101206B
:1020300000E000207047CA430260704770B5024656
:102040000020002300240B125568CEB205EA0604D6
:1020500015681D4015B10CB1012000E0002070BDD5
:1020600000220A12D3430360704700000CB5002021
:10207000019000906C48006840F480306A49086024
:1020800000BF6948006800F4003000900198401CCF
:102090000190009818B90198B0F5A06FF1D162488D
:1020A000006800F4003010B10120009001E0002031
:1020B00000900098012843D15C48006840F010006F
:1020C0005A4908600846006820F003000860084686
:1020D000006840F002000860534840685249486078
:1020E0000846406848600846406840F480604860A0
:1020F0000846406820F47C1048600846406840F478
:10210000E81048600846006840F08070086000BF32
:102110004548006800F000700028F9D04248406847
:1021200020F00300404948600846406840F0020043
:10213000486000BF3C48406800F00C000828F9D116
:102140000CBD10B5FFF792FF10BD10B53648006802
:1021500040F00100344908600846406834490840AE
:102160003149486008460068324908402E490860F5
:102170000846006820F4802008600846406820F483
:10218000FE0048604FF41F008860FFF7DAFF4FF051
:1021900000602949086010BD10B500210020002210
:1021A000214B5B6803F00C0121B1042906D00829FA
:1021B00028D107E0214B224C236027E01F4B204C05
:1021C000236023E0184B5B6803F47010164B5B68C8
:1021D00003F48032022303EB904022B9194B4343AE
:1021E000174C23600DE0104B5B6803F4003323B100
:1021F000144B4343124C236003E0104B4343104CF9
:10220000236003E00D4B0E4C236000BF00BF064B64
:102210005B68C3F303130C4CE15C094B1B68CB40B8
:10222000074C236010BD0000001002400020024057
:102230000000FFF8FFFFF6FE08ED00E000127A0054
:102240001400002000093D0018000020014605E0B0
:10225000002001E0421CD0B20A28FBDB0A1EA1F1DB
:102260000101F5D1704710B5044603E04FF47A70D0
:10227000FFF7ECFF201EA4F10104F7D110BD704759
:1022800008B50720009002E00098401E00900098DA
:102290000028F9D108BD10B54FF40070E649086078
:1022A00040100860FFF7ECFFE3480838006808B901
:1022B000012000E0002000F4007008B1002010BDF3
:1022C0004FF40070DC49091D0860FFF7D9FFDA48B8
:1022D0000838006800F4007008B10020EFE74FF400
:1022E0000070D549091D0860FFF7CAFF0120E6E725
:1022F00010B54FF48070D049091D0860FFF7C0FF8A
:102300004FF40070CC49091D0860FFF7B9FF4FF486
:102310008070C9490860FFF7B3FF4FF40070C649E9
:102320000860FFF7ADFF10BD10B54FF48070C249D3
:10233000091D0860FFF7A4FF4FF40070BE49091D96
:102340000860FFF79DFF4FF48070BB490860FFF7FE
:1023500097FF4FF48070B849091D0860FFF790FFA0
:1023600010BD10B54FF48070B349091D0860FFF728
:1023700087FF4FF40070B0490860FFF781FF4FF40A
:102380008070AD490860FFF77BFF4FF48070AA4969
:10239000091D0860FFF774FF10BD10B54FF4807081
:1023A000A549091D0860FFF76BFF4FF40070A249B3
:1023B0000860FFF765FF4FF480709F490860FFF7E2
:1023C0005FFF9D480838006800F4007030B14FF49A
:1023D00080709949091D0860002010BD4FF480707D
:1023E0009549091D08600120F7E770B504460825E6
:1023F0001DE04FF480709049091D0860FFF740FF11
:1024000004F0800020B14FF400708B49086004E0B4
:102410004FF400708849091D08606006040EFFF73C
:102420002FFF4FF4807084490860FFF729FF281EB2
:10243000A5F10101CDB2DCD14FF480707E49091DB8
:10244000086070BD70B508250024A8017A490860AD
:1024500016E06006040E4FF480707749091D08608D
:10246000FFF70EFF4FF4807073490860FFF708FF15
:1024700071480838006800F4007008B144F00104A5
:10248000281EA5F10101CDB2E3D14FF480706A4955
:10249000091D0860204670BD08B501210820FEF71F
:1024A00047FA4FF44070ADF8000002208DF80200AA
:1024B00014208DF8030069465F481038FDF77CFF53
:1024C00008BD2DE9F04105460E4617469846FFF730
:1024D000E2FE10B90020BDE8F081002141EA45018B
:1024E000C8B2FFF782FFFFF758FF18B9FFF700FFE8
:1024F0000020F0E73046FFF778FFFFF74EFF00249B
:102500000BE018F80400FFF770FFFFF746FF18B95B
:10251000FFF7EEFE0020DEE7641CBC42F1DBFFF7B4
:10252000E7FE0120D7E72DE9F04104460D461646A7
:102530001F463B46324629462046FFF7C2FF10B1F0
:102540000020BDE8F0814FF0FF30FAE72DE9F041BF
:1025500005460F4614461E46FFF79DFE10B90020A3
:10256000BDE8F081002141EA4501C8B2FFF73DFF17
:10257000FFF713FF18B9FFF7BBFE0020F0E738465E
:10258000FFF733FFFFF709FFFFF785FE012101EB9E
:102590004501C8B2FFF729FFFFF7FFFE0CE0FFF788
:1025A00051FF3070012C02D1FFF7DBFE01E0FFF795
:1025B000BBFE761C601EC4B2002CF0D1FFF798FE63
:1025C0000120CDE72DE9F04104460D4616461F4691
:1025D0003B46324629462046FFF7B8FF10B100209F
:1025E000BDE8F0814FF0FF30FAE770B504460D46C4
:1025F0001646FFF750FE08B9002070BD002141EAE1
:102600004401C8B2FFF7F1FEFFF7C7FE18B9FFF7A4
:102610006FFE0020F1E72846FFF7E7FEFFF7BDFE5B
:102620003046FFF7E2FEFFF7B8FEFFF761FE01203C
:10263000E3E7002070470000100C014008B50121BD
:102640001120FEF775F901210B48FDF786FF4FF4C5
:10265000C040ADF8000003208DF8020010208DF876
:10266000030069460548FDF7A7FE4FF4C041034843
:10267000FDF74FFF08BD00000002300000100140D0
:10268000FFF763FD41F61F4141F2883002F094F8F4
:1026900002F0CEF801F0FEFE01F049FF00F0CAF8AA
:1026A00000F02CF8FFF7CAFF02F048F900F0D8F864
:1026B00000F03FF9FFF7F0FE0A2000F017FE00F0EF
:1026C0004BFA00F0BBFD00F021FE4FF0E020006966
:1026D00040F001004FF0E02108610CE000F0ACFA9E
:1026E0000548007818B101F05BFD01F066FD01F0CE
:1026F000EFFB01F0AEFBF1E76800002008B5012117
:102700000820FEF715F94FF47040ADF800001020D6
:102710008DF8030003208DF802006946FE48FDF79E
:102720004BFE4FF47041FC48FDF7F3FE08BD08B5C1
:1027300001210846FEF709F901210420FEF7F8F807
:102740000C20ADF8000018208DF8030003208DF850
:1027500002006946F148FDF72FFE08BD30B587B08D
:102760000025002440F2E730ADF814000020ADF859
:102770001000ADF81600ADF8120004A94FF080402B
:10278000FEF70EFA6020ADF800000120ADF802005F
:10279000ADF806500020ADF8080069464FF08040C3
:1027A000FEF7CAFA0821C806FEF79CFE0120ADF824
:1027B0000200ADF806400020ADF8080069464FF071
:1027C0008040FEF704FB0821C806FEF794FE0121B5
:1027D0008807FEF741FE01218807FEF73DFD07B09F
:1027E00030BD2DE9FF4104460D4627462E466020A8
:1027F000ADF800000120ADF80200ADF80670002031
:10280000ADF8080069464FF08040FEF795FA0821C0
:10281000C806FEF767FE0120ADF80200ADF80660BD
:1028200069468007FEF7D3FA0821C806FEF763FE63
:10283000BDE8FF8110B5FFF77AFFFFF78FFF10BDEE
:10284000B7490888098821F00101B54A118070470D
:10285000B4490888098821F00101B24A1180704703
:1028600000B589B001210220FEF76FF80121042094
:10287000FEF75EF801A8FDF72AFEC020ADF80400BF
:1028800004208DF8070003208DF8060001A9A34855
:10289000FDF792FD4FF4A060FDF732FC1D208DF88E
:1028A000080001208DF8090003208DF80A0001209E
:1028B0008DF80B0002A8FDF728FC99481038FEF7A8
:1028C0009BF806A8FEF798FC0020ADF818004FF61C
:1028D000FF70ADF81C000020ADF81E00ADF81A0026
:1028E00006A98F481038FEF75BF90A231A46032120
:1028F0008B481038FEF763FD03A8FEF790FC062016
:10290000ADF8140003A986481038FEF7DCFB01215E
:1029100083481038FEF766FF0122114680481038C0
:10292000FEF7B5FC01217E481038FEF795FC09B092
:1029300000BD00B589B001210420FEF706F8012191
:102940000820FDF7F5FF01A8FDF7C1FDC020ADF897
:10295000040004208DF8070003208DF8060001A96B
:102960006D48FDF729FD4FF4A060FDF7C9FB1E205F
:102970008DF8080001208DF8090003208DF80A0069
:1029800001208DF80B0002A8FDF7BFFB6548103849
:10299000FEF732F806A8FEF72FFC0020ADF818006D
:1029A0004FF6FF70ADF81C000020ADF81E00ADF82A
:1029B0001A0006A95B481038FEF7F2F80A231A46F7
:1029C000032158481038FEF7FAFC03A8FEF727FC4D
:1029D0000620ADF8140003A952481038FEF773FB27
:1029E000012150481038FEF7FDFE012211464D48E6
:1029F0001038FEF74CFC01214A481038FEF72CFC39
:102A000009B000BD00B585B001210420FDF790FF9D
:102A100001210220FDF799FF8020ADF8100004206D
:102A20008DF8130003208DF8120004A93B48FDF730
:102A3000C3FC4FF4A060FDF763FB1D208DF8000080
:102A400001208DF8010003208DF8020001208DF88F
:102A500003006846FDF759FB31481038FDF7CCFFFD
:102A60004FF6FF70ADF808000020ADF80400ADF897
:102A70000A00ADF8060001A929481038FEF790F8C1
:102A800000231A46602126481038FEF734FC002146
:102A900023481038FEF774FE012121481038FEF754
:102AA000DBFB05B000BD00B585B001210820FDF7B6
:102AB0003FFF01210420FDF748FF8020ADF8100002
:102AC00004208DF8130003208DF8120004A9124889
:102AD000FDF772FC4FF4A060FDF712FB1E208DF88D
:102AE000000001208DF8010003208DF80200012074
:102AF0008DF803006846FDF708FB0A481038FDF71B
:102B00007BFF4FF6FF70ADF808000020ADF8040021
:102B1000ADF80A0008E00000000C01400008014088
:102B20001004004010080040ADF8060001A9094853
:102B3000FEF736F800231A4660210648FEF7DBFB55
:102B400000210448FEF71CFE01210248FEF784FB29
:102B500005B000BD0008004070B5002402F0B9FBCC
:102B60000446002C60D17CA001F011FE782002F018
:102B700012F818B981A001F00AFE02E087A001F066
:102B800006FE782002F0F4F918B98FA001F0FFFDDD
:102B900002E096A001F0FBFD642002F0CAFA18B929
:102BA0009EA001F0F4FD02E0A6A001F0F0FD03F00C
:102BB00081FE18B9ACA001F0EAFD02E0B7A001F077
:102BC000E6FDC54804F052FD054603F07DFE18B948
:102BD000C2A001F0DCFD02E0CAA001F0D8FD40F285
:102BE000731004F0B2FA18B9D2A001F0D0FD02E0DF
:102BF000D9A001F0CCFD642004F020F818B9E2A0BF
:102C000001F0C5FD02E0E9A001F0C1FD04F042FDC4
:102C1000012003F095FB18B9EFA001F0B8FD0AE020
:102C2000F6A001F0B4FD06E04FF40051FE48FDF7B8
:102C300072FC00BFFEE770BD2DE9F04F89B0FB4884
:102C4000FB49FC4BFC4ACDE90010FC49FC4804F070
:102C5000DBFBF748008800F4807000287AD0F64942
:102C6000086805F050F804464FF09D4104F085FED9
:102C7000F4490860F049486805F045F804464FF00B
:102C80009D4104F07AFEF0490860EB49886805F040
:102C90003AF804464FF09D4104F06FFEEB4908609E
:102CA000E549C86805F02FF804464FF09D4104F04F
:102CB00064FEE7490860E34801684FF0804004F093
:102CC0002AFE0690E1480168069804F024FE824638
:102CD000DD4801684FF0404004F01DFE0690DC48DE
:102CE0000168069804F017FE8346514604F0BBFDC8
:102CF000079005F054F8064606F0E6F980464FF0D6
:102D00006632D44B04F01EFF044605F073F8D24936
:102D10000860CE4801684FF0804004F0FCFD03904D
:102D2000CA480168039804F0F6FD8246C648016867
:102D30004FF0404004F0EFFD0390C3480168039852
:102D400004F0E9FD8346514604F0DFFD81464FF073
:102D50007E5183E10CE200006D707520696E69742C
:102D600069616C697A6174696F6E20636F6D706CF4
:102D70006574652E2E2E2E2E2E0A20006D70755F26
:102D80007365745F73656E736F7220636F6D706CC3
:102D9000657465202E2E2E2E2E2E0A006D70755F06
:102DA0007365745F73656E736F7220636F6D6520FA
:102DB0006163726F7373206572726F72202E2E2E94
:102DC0002E2E2E0A000000006D70755F636F6E6618
:102DD00069677572655F6669666F20636F6D706C99
:102DE000657465202E2E2E2E2E2E0A006D70755FB6
:102DF000636F6E6669677572655F6669666F20638B
:102E00006F6D65206163726F7373206572726F728C
:102E1000202E2E2E2E2E2E0A000000006D70755FC3
:102E20007365745F73616D706C655F72617465204A
:102E3000636F6D706C657465202E2E2E2E2E2E0AFB
:102E4000000000006D70755F7365745F73616D7075
:102E50006C655F72617465206572726F72202E2ED0
:102E60002E2E2E2E0A000000646D705F6C6F616460
:102E70005F6D6F74696F6E5F6472697665725F66AD
:102E800069726D7761726520636F6D706C657465D2
:102E9000202E2E2E2E2E2E0A00000000646D705F54
:102EA0006C6F61645F6D6F74696F6E5F6472697679
:102EB00065725F6669726D7761726520636F6D65BB
:102EC000206163726F7373206572726F72202E2E91
:102ED0002E2E2E2E0A00000028000020646D705F48
:102EE0007365745F6F7269656E746174696F6E206B
:102EF000636F6D706C657465202E2E2E2E2E2E0A3B
:102F000000000000646D705F7365745F6F726965C7
:102F10006E746174696F6E20636F6D65206163729A
:102F20006F7373206572726F72202E2E2E2E2E2ECE
:102F30000A000000646D705F656E61626C655F66BB
:102F400065617475726520636F6D706C6574652062
:102F50002E2E2E2E2E2E0A00646D705F656E61621D
:102F60006C655F6665617475726520636F6D652061
:102F70006163726F7373206572726F72202E2E2ED2
:102F80002E2E2E0A00000000646D705F7365745F62
:102F90006669666F5F7261746520636F6D706C65E2
:102FA0007465202E2E2E2E2E2E0A0000646D705F6A
:102FB0007365745F6669666F5F7261746520636FC5
:102FC0006D65206163726F7373206572726F72201A
:102FD0002E2E2E2E2E2E0A006D70755F7365745F77
:102FE000646D705F737461746520636F6D706C6580
:102FF0007465202E2E2E2E2E2E0A00006D70755F09
:103000007365745F646D705F737461746520636F62
:103010006D65206163726F7373206572726F7220C9
:103020002E2E2E2E2E2E0A000010014062000020AF
:103030006000002050000020140200205A000020F0
:103040005400002034000020380000203C00002004
:103050004000002066A64C404400002004F003FC21
:10306000044604F09CFECDE90401434801684FF09A
:10307000804004F050FC834640480168584604F004
:103080004AFC81463E4801684FF0804004F043FC12
:1030900083463C480168584604F03DFC8246494658
:1030A00004F0E1FB044604F07AFE0746DDE9042360
:1030B00006F052FA4FF06632334BCDE9060104F0C8
:1030C00041FD054604F096FE304908602D48016830
:1030D000006804F020FC039029480168006804F0AF
:1030E0001AFC029025480168006804F014FC83462D
:1030F00021480168006804F00EFC5946019004F074
:10310000B2FB8246029904F000FC8146039904F068
:10311000FCFB044604F043FECDE9040119480168B4
:103120001548006804F0F7FB82461548016813480B
:10313000006804F0F0FB8346514604F094FB81469E
:103140004FF0804104F0E7FB044604F028FE0746F8
:10315000DDE9042306F000FA4FF066320A4BCDE9B0
:10316000060104F0EFFC054604F044FE084908603F
:1031700009B0BDE8F08F00003400002038000020C6
:103180003C0000204000002066A64C404800002083
:103190004C000020704700BFFEE700BFFEE700BF05
:1031A000FEE700BFFEE770477047704710B51D4847
:1031B0000078401C1B4908701B480078401C1A49C5
:1031C00008701A480078401C1849087000F0F8FA96
:1031D00017480078401C1649087016480078401CB3
:1031E0001449087014480078401C1349087000F016
:1031F00013F900F029FA0C480078022806DB01F0E8
:1032000088FB00F00EFC0020074908700748007892
:10321000082806DB00F001FB00200449087004497F
:10322000087010BDC3000020C8000020C4000020AA
:10323000C5000020C6000020C700002030B5274888
:103240000068C822B0FBF2F1B1F1807F01D3012008
:103250001DE021F07F40401E4FF0E02250615017EA
:103260000F22002807DA13071D0E1D4B00F00F0474
:10327000241F1D5503E013071C0E1A4B1C5400BFDE
:1032800000204FF0E022906107201061002008B17B
:1032900000BFFEE74FF0E020006920F001004FF092
:1032A000E021086130BD01B50F49009808604FF07A
:1032B000E020006940F001004FF0E021086100BF0C
:1032C000094800680028FBD108BD0748006820B104
:1032D00005480068401E044908607047140000203B
:1032E00018ED00E000E400E064000020002107E0A9
:1032F00042F6E06100BF0A1EA1F1010399B2FAD1C2
:10330000021EA0F1010398B2F2D170470020FA49E1
:103310000880FA490880FA490860FA490860FA49C1
:103320000860FA490860FA490860FA490860FA49F1
:103330000860FA490860FA490860FA490860FA49E1
:103340000860FA490860FA490860FA490860FA49D1
:103350000860FA490860FA490870FA490870FA49A1
:103360000870FA49086070472DE9F041F848006894
:1033700004F015FD0446F748D0E9006332462046C4
:1033800004F020FD07D0F348D0E90021104604F0F6
:1033900031FDEF490860F048006804F000FD044684
:1033A000EC48D0E902633246204604F00BFD07D01A
:1033B000E849D1E90221104604F01CFDE649086005
:1033C000E648006804F0EBFC0446E248D0E90463F8
:1033D0003246204604F0F6FC07D0DE48D0E904214E
:1033E000104604F007FDDD490860DD48006804F080
:1033F000D6FC0446D748D0E906633246204604F09E
:10340000E1FC07D0D348D0E90621104604F0F2FCD5
:10341000D3490860BDE8F0812DE9F041D14800684A
:10342000012810D10020CA490860CF48006804F084
:1034300078FC06460022CD4B04F084FB044604F0E1
:10344000D9FCC3490860C7480068022812D100208F
:10345000C1490860C6490968A1F1400004F061FC57
:1034600006460022C34B04F06DFB044604F0C2FC88
:10347000B9490860C049B1F9040004F044FCBF49EF
:103480000860BF49B1F9040004F03DFCBD49086083
:103490000021BD48006804F0C9FC0BD0BB49BA4804
:1034A000006804F0C3FC05D3B949B748006804F0CC
:1034B000C7FC05D24FF40051B648FDF72CF804E0E4
:1034C0004FF40051B348FDF724F80021B2480068DA
:1034D00004F01BFA8F490860A949B1F9000004F013
:1034E00012FC06469C480168304604F014FA044673
:1034F000974801688748006804F00DFA05462146A0
:1035000004F0B1F986490860BDE8F0812DE9F04189
:1035100004460D46002C0CDA4FF480419F48FCF71E
:10352000F8FF4FF400419D48FCF7F5FF604204B2FC
:103530000AE04FF400419948FCF7EBFF4FF480415B
:103540009648FCF7E8FF00BF002D0CDA4FF400515D
:103550009248FCF7DEFF4FF480519048FCF7DBFF08
:10356000684205B20AE04FF480518C48FCF7D1FF65
:103570004FF400518948FCF7CEFF00BFAFB2A6B2AE
:1035800031464FF08040FEF703F939464FF0804056
:10359000FEF700F982497C48006804F051FC23D30F
:1035A00080497948006804F041FC02D24FF00108DC
:1035B00001E04FF0000800215F48006804F036FC8D
:1035C00001D1012000E0002008EA000800215B484A
:1035D000006804F02BFC01D1012000E0002008EA83
:1035E0000008B8F1000F0DD000214FF08040FEF729
:1035F000CFF800214FF08040FEF7CCF801206A4957
:10360000086002E000206849086068494148006895
:1036100004F016FC05D366493E48006804F006FC39
:103620000DD200214FF08040FEF7B2F800214FF09C
:103630008040FEF7AFF801205B49086002E00020FF
:1036400059490860BDE8F08170B55A4801683448AE
:10365000006804F008F904462F480168204604F089
:1036600002F931490860534801682D48006804F0A8
:10367000FAF8044628480168204604F046F929492A
:1036800008602948006804F05DFB00B2B0F57A7F5D
:1036900002DD4948244908602348006804F052FBD1
:1036A00000B210F57A7F02DA44481F4908601D48CD
:1036B000006804F047FB00B2B0F57A7F02DD3E48B7
:1036C000184908601748006804F03CFB00B210F588
:1036D0007A7F02DA3948134908601248006804F01A
:1036E00031FB04B21048006804F02CFB05B22146FF
:1036F0002846FFF70BFF70BD0E0100200C010020D3
:103700001C010020180100202401002020010020BD
:1037100028010020E800002044010020D000002003
:10372000DC000020E4000020E00000204001002038
:1037300084010020800100204C010020480100206D
:10374000C3000020C4000020C50000203801002074
:10375000F800002050970008FC0000200001002025
:103760000401002068010020580100200080FB3F78
:103770005C0100200000C43F5A00002078010020B6
:10378000540000207C010020440000200000A0C163
:103790000000A0410010014048000020000C014042
:1037A00000002041000020C13401002000004842F8
:1037B000000048C2D800002000007A4400007AC40B
:1037C00070B5FC48FDF7FFFF0446FB48FDF7FBFF23
:1037D0000546FA480460FA4805600021F548FDF7FF
:1037E000CFFF0021F448FDF7CBFF20B2F549088058
:1037F000684200B2F4490880F4480068F149B1F920
:1038000000100844F1490860F1480068EE49B1F938
:1038100000100844EE49086070BD2DE9F05FEB49E7
:103820000968EB4A1268881804F06DFAE9490860E3
:103830000020E7490860E5490860E748006804F0AF
:10384000AEFA06464FF06632E44B04F07BF90446CC
:1038500004F0D0FAE0490860DE48006804F09FFAFE
:1038600080464FF03332DE4B04F06CF904460D46CF
:10387000D948006804F093FA064622462B4604F025
:10388000BAF8824604F0B6FAD349086008460168DF
:10389000D448006803F0E7FFD2490860D2480168C5
:1038A000D048006803F0DFFFCE490860CF480168C8
:1038B000CC48006803F0D7FFCA490860CC480068CC
:1038C000012801D100200860C648006804F03AFAD7
:1038D000B0F5FA5F02DDC748C2490860C148006818
:1038E00004F030FA10F5FA5F02DAC348BD49086007
:1038F000C2480068032812D10020C1490860C149AC
:103900000968A1F1800004F00CFA06460022BE4BC3
:1039100004F018F9044604F06DFAB9490860B74894
:103920000068042812D10020B8490860B849096825
:10393000A1F1C00004F0F5F906460022B54B04F0F1
:1039400001F9044604F056FAB04908600021A54880
:10395000006803F0DAFF0646AC480168304603F021
:10396000DAFF044600219C48006803F0CEFF0646BB
:10397000A3480168304603F0CEFF0546214603F018
:1039800072FFA5490860BDE8F09F10B5002408212A
:10399000A248FEF7E9F830B10821A048FEF7F1F897
:1039A0009E48FEF777F820219C48FEF7DDF80028B6
:1039B00036D040F225519948FEF716F99748001D78
:1039C0000088C4B2242C05D101209549087000203C
:1039D0009449086092480078012803D1924891499F
:1039E000096844548E48007801280AD1232C08D154
:1039F0008E49087000208A4908708A4800688C49FE
:103A0000086088480068401C8649086008460068CD
:103A1000502805DB00200860814908708349087040
:103A200010BD2DE9F0418348006800283ED182484E
:103A3000FDF7C9FE00EB800000EB001044002046BB
:103A400004F06FF9054600227C4B04F0EDF80746C0
:103A500004F0D0F97A4908600846006804F09FF93C
:103A600004460022774B04F0ADF903D876485F494D
:103A700008601BE075497248006804F0E1F901D85C
:103A8000012400E000244FF082416D48006804F0FA
:103A9000CDF901D8012000E0002004401CB16C48A1
:103AA0005249086002E0002050490860BDE8F081FA
:103AB0002DE9FC5F67480068012878D16648D0F896
:103AC00000B06648006801906548B0F9029065480A
:103AD000B0F900A05A480468484604F014F90646B4
:103AE0004FF08D4103F049FF05465F4903F013FF96
:103AF0005E490860504604F006F906465C4903F04A
:103B000004FF05465B4903F038FF5B4908605846EF
:103B100004F045F90746594A594B04F085F8054623
:103B200004F068F98346019804F039F90546534AD0
:103B3000534B04F079F8074604F05CF901905021EA
:103B4000504803F065FE4F484FA1096801600A2103
:103B50004E4803F05DFE4E48002101604160018146
:103B60000A214C4803F054FE4B480021016041609B
:103B700001810A21494803F04BFE494800210160B8
:103B8000416001814749584604F050F910D8464930
:103B9000584604F055F90BD8584604F000F905468C
:103BA0002A460B4641A1394804F07CFD84E04EE1F1
:103BB00080E0000000040040000800402C010020CC
:103BC000300100200C0100200E010020180100200F
:103BD0001C01002020010020240100206666E63F31
:103BE0003333D33F2801002040010020380100205A
:103BF000340100200000FA450000FAC568010020E9
:103C000000010020600100200000DE3F04010020D0
:103C1000640100200000C43FD8000020004800409C
:103C2000D8010020D40100202402002068000020D8
:103C3000DC01002050010020002C01400000694000
:103C40003C01002000001040000096C30000A0408E
:103C50000000FA436C010020E0000020E400002096
:103C60005A00002054000020CDCC1C4178010020D7
:103C70009A190043000003437C01002048E17A14B4
:103C8000AE470F40C4020020244C5600DC03002045
:103C9000E6030020F0030020FA03002004040020C3
:103CA0000E04002000007A4400007AC425332E322E
:103CB00066000000BDE8FC9FFE49019804F0B6F8DC
:103CC00010D8FD49019804F0BBF80BD8019804F016
:103CD00066F805462A460B46AFF23001F74804F075
:103CE000E1FC00E0E6E7F649F648006804F0A8F8D1
:103CF00012D2F549F348006804F098F80CD2F14864
:103D0000006804F04CF805462A460B46AFF2640101
:103D1000EE4804F0C7FC00E0CCE7ED49ED48006850
:103D200004F08EF812D2EC49EA48006804F07EF8FC
:103D30000CD2E848006804F032F805462A460B46E3
:103D4000AFF29801E54804F0ADFC00E0B2E70021D5
:103D5000204604F075F810D8E149204604F066F8D2
:103D60000BD2204604F01BF805462A460B46AFF25C
:103D7000C401DC4804F096FC00E09BE7002000F062
:103D80001FFE0090009803F0C7FF0746D64903F0D6
:103D9000C2FD06464FF08B4103F0EFFD0546D349C7
:103DA00003F0B3FDD24908600021D148006804F057
:103DB00047F812D8C449CE48006804F037F80CD24E
:103DC000CB48006803F0EBFF05462A460B46AFF2EE
:103DD0002411C84804F066FC00E06BE7C649C748F8
:103DE00003F021FDC6A1C54803F01DFDB349C3483A
:103DF00003F019FDC3A1C14803F015FDB349BF4845
:103E000003F011FDC0A1BD4803F00DFDB349BB484F
:103E100003F009FDBDA1B94803F005FDB149B7485C
:103E200003F001FDBBA1B54803F0FDFCB149B34867
:103E300003F0F9FCB8A1B14803F0F5FC5021B748F4
:103E400003F0E6FC5022AD49B44803F0C8FC00BFC3
:103E500030E710B5B2480068401EB1490860B1486B
:103E60000068012807D10846006820B9FFF720FE46
:103E7000AA4800F080FCAA48006818B941F28830CE
:103E8000A749086010BD30B503460C4600211AE072
:103E9000585C2578A84200D014E0002206E0521CAD
:103EA000A05C8D185D5DA84200D005E0A05C18B153
:103EB0008818185C0028F2D100BFA05C08B9084639
:103EC00030BD00BF491C585C0028E1D1401EF7E717
:103ED00010B595480068072846D2DFE800F0040EC8
:103EE00026181F303B000020904908609049086068
:103EF00090490860904908603AE000208D490860C8
:103F00008E488A49086001208B49086030E08C485F
:103F10008849086001208849086029E08948854966
:103F2000086001208449086022E00020814908607F
:103F300085487E49086001207F49086018E0834871
:103F40000068404203F0DFFE7A49086001207A49A8
:103F500008600DE07D48006803F0D5FE75490860F3
:103F600001207549086003E000207049086000BF27
:103F700000BF10BD70B53221754803F049FC74488C
:103F800074A10968016000217348006803F058FFBC
:103F900012D872497048006803F048FF0CD86E4888
:103FA000006803F0FCFE044622460B46AFF20431E3
:103FB0006B4804F077FB03E06AA000F0DCFB70BD07
:103FC00000216C48006803F03BFF12D86349694840
:103FD000006803F02BFF0CD86648006803F0DFFE92
:103FE000044622460B46AFF23C31634804F05AFBCC
:103FF00003E05CA000F0BFFBE1E700215F48006840
:1040000003F01EFF12D855495C48006803F00EFF0C
:104010000CD85A48006803F0C2FE044622460B46FC
:10402000AFF27831564804F03DFB03E04DA000F0BC
:10403000A2FBC4E700215348006803F001FF12D837
:1040400046495048006803F0F1FE0CD84D4800681E
:1040500003F0A5FE044622460B46AFF2B0314A48B3
:1040600004F020FB03E03FA000F085FBA7E73C49FC
:10407000374803F0D8FB45A1354803F0D4FB3E494F
:10408000334803F0D0FB42A1314803F0CCFB3C495C
:104090002F4803F0C8FB3FA12D4803F0C4FB3A4969
:1040A0002B4803F0C0FB1CA1294803F0BCFB2848A7
:1040B00072E0000000007A4400007AC4E6030020A9
:1040C0000000A0C1780100200000A041F003002002
:1040D00000803BC57C01002000803B45FA030020A6
:1040E00000401C4604040020CDCC5441CDCC4C3EB5
:1040F000CC0000200E040020DC030020C4020020BD
:104100002C5256002C4143002C4759002C4353425B
:10411000000000002C56540023000000140300206F
:10412000700100206C0100206C0000204001002084
:1041300038010020440100205001002000004844C4
:10414000000096C300009643000048C48801002088
:104150009100002024415000F80000200000C842D7
:10416000B4030020244765745049444572726F724D
:1041700023000000FC000020BE03002000010020FE
:10418000C803002004010020D20300202C41440079
:104190002C5650002C56490000F0EDFA00BF0EE7F7
:1041A00010B5A6480268521CA549A64803F017FBA3
:1041B0005021A34803F02CFB10BDF0B589B0A148F5
:1041C00040783038052827D2DFE800F01F030A11B5
:1041D000180001209C4908609C4800F0CCFA1FE0C0
:1041E000022099490860994800F0C5FA18E00320B8
:1041F00095490860954800F0BEFA11E00420924904
:104200000860924800F0B7FA0AE000208E49086082
:104210008E4800F0B0FA03E000208B49086000BF30
:1042200000BF884803F00BFB15280BD200208849FB
:1042300008705021834803F0EBFA86A000F09BFA47
:1042400009B0F0BD7F48C078312805D105207E49EE
:1042500008607E4800F08FFA7A48C078322805D18D
:10426000062079490860794800F085FA7548407958
:10427000312802D1FFF77EFE08E0724840793228EB
:1042800004D1FFF771F878A000F075FA6D48C07995
:10429000312806D101207649086073A000F06BFA3E
:1042A00009E06848C079322805D1002070490860CB
:1042B0006DA000F060FA6348407A312857D114218C
:1042C00004A803F0A5FA002002900390009001904A
:1042D00068A15C48FFF7D7FD0546681C00B9AFE749
:1042E00065480068421B5748411904A803F077FA53
:1042F00062A104A8FFF7C7FD0446601C00B99FE750
:10430000A21E0DF1120102A803F069FA02A805F03D
:10431000E3F9064603F06EFD59490860142104A82C
:1043200003F076FA2819544B1B681A1A454828449A
:104330002044411C04A803F052FA50A104A8FFF73E
:10434000A2FD0446601C00B97AE7A21E0DF112011D
:10435000684603F044FA684605F0BEF9064603F0E5
:1043600049FD4849086040A000F005FA00BF354803
:10437000C07A312858D1142104A803F049FA00204A
:1043800002900390009001903FA12E48FFF77BFD23
:104390000546681C00B953E737480068421B2948A6
:1043A000411904A803F01BFA34A104A8FFF76BFD20
:1043B0000446601C00B943E7A21E0DF1120102A8D9
:1043C00003F00DFA02A805F087F9064603F012FD86
:1043D0002E490860142104A803F01AFA2819264B64
:1043E0001B681A1A174828442044411C04A803F0EB
:1043F000F6F9AFF2DC2104A8FFF745FD0446601C86
:1044000000B91DE7A21E0DF11201684603F0E7F99D
:10441000684605F061F9064603F0ECFC1C490860AB
:1044200011A000F0A8F900BF002009490870502130
:10443000044803F0EDF900BF02E70000D4010020BA
:1044400024020020740200206C0000207000002074
:104450006800002024526563656976655061636B6E
:104460004572726F72230000244F4B23000000003E
:104470006C01002041500000DC0100202C000000F5
:10448000F8000020FC000020565000000001002031
:104490000401002000B585B0012144F20400FCF7BE
:1044A00047FA4FF40070ADF8100018208DF8130093
:1044B00003208DF8120004A9BB48FBF77DFF4FF4E1
:1044C0008060ADF8100004208DF8130004A9B648F0
:1044D000FBF772FF4FF4E13000900020ADF80400CC
:1044E000ADF80600ADF80800ADF80C000C20ADF8F2
:1044F0000A006946AD48FDF7D0F90121AB48FDF748
:1045000058FA05B000BD08B54FF48060FBF7F8FD20
:1045100027208DF8000004208DF8010001208DF87F
:1045200002008DF803006846FBF7EFFD08BD00B5FB
:1045300085B001218804FCF708FA01210820FCF766
:10454000F7F94FF48060ADF8100018208DF81300D3
:1045500003208DF8120004A99548FBF72DFF4FF4B6
:104560000060ADF8100004208DF8130004A99048F5
:10457000FBF722FFFFF7C7FF4FF416500090002013
:10458000ADF80400ADF80600ADF80800ADF80C0079
:104590000C20ADF80A0069468648FDF77EF9012235
:1045A00040F225518348FDF710FA01218148FDF7BB
:1045B00000FA05B000BD70B504460D46E1B27B4877
:1045C000FDF764FA00BF40217848FDF7CDFA0128D5
:1045D000F9D1204670BDF0B503460D4616460027BA
:1045E00029460A2E03D0002008702846F0BD33B9B2
:1045F000302001F8010B002008702846F6E7002B58
:1046000003DA2D2001F8010B5B4242F210720DE03B
:1046100093FBF2F404B937B104F1300001F8010B57
:1046200004FB123301270A2092FBF0F2002AEFDC90
:10463000002008702846D9E70FB470B586B006464A
:104640000CA8019073E00B9800785C281CD10B98A3
:10465000401C0B9000786E2809D072280FD10D21D4
:104660003046FDF713FA0B98401C0B900BE00A2123
:104670003046FDF70BFA0B98401C0B9003E00B98AB
:10468000401C0B9000BF4BE00B980078252840D1D0
:104690000B98401C0B900078642818D0732833D1F5
:1046A000019810C801900BE021783046FDF7EEF933
:1046B00000BF40213046FDF757FA0028F9D0641CAE
:1046C00020780028F0D10B98401C0B9020E0019836
:1046D00020C801900A2202A92846FFF77CFF02ACFD
:1046E0000BE021783046FDF7D1F900BF402130467C
:1046F000FDF73AFA0028F9D0641C20780028F0D1A0
:104700000B98401C0B9003E00B98401C0B9000BFD3
:1047100006E00B9810F8011B0B903046FDF7B6F938
:1047200000BF40213046FDF71FFA0028F9D00B9852
:104730000078002887D106B070BC5DF814FB10B576
:10474000044621461948FDF7A1F900BF402117484A
:10475000FDF70AFA0128F9D110BD10B5044621462B
:104760001448FDF793F900BF40211248FDF7FCF90A
:104770000128F9D110BD70B505462C4603E020781C
:10478000FFF7EBFF641C20780028F8D170BD70B5EE
:1047900005462C4603E02078FFF7D1FF641C207803
:1047A0000028F8D170BD0000000801400038014029
:1047B000000C0140004800407FB504460D46012131
:1047C000C802FCF7B5F841F28830ADF8080041F6B0
:1047D0001F40ADF804000120ADF80A000020ADF83C
:1047E000060001A91148FCF7DBF9012241210F481D
:1047F000FCF74DFD19208DF8000003208DF8010015
:1048000000208DF8020001208DF803006846FBF7B8
:104810007CFC7FBD10B501210448FCF7E6FF18B110
:1048200001210248FCF7F2FF10BD0000002C0140FE
:104830001FB501213D48FBF790FE01210920FCF73F
:1048400077F80120ADF80C0010208DF80F00032040
:104850008DF80E0003A93648FBF7AEFD0220ADF837
:104860000C0028208DF80F0003A93148FBF7A4FDA8
:1048700001210846FBF7B6FE0220019000208DF8CA
:10488000080008208DF8090001208DF80A0001A811
:10489000FBF7B2FC07208DF8000003208DF8010023
:1048A00001208DF802008DF803006846FBF72DFC0F
:1048B0001FBD10B50220FBF705FD48B300211D48C0
:1048C000FCF75EFF01211B48FCF7C6FC01201A49DA
:1048D000086012E01748FCF776FF0A2807DB002182
:1048E0001448FCF7B9FC00201349086005E00221D8
:1048F0000F48FBF7F4FD104908600F4800680028D6
:10490000E8D100210B48FCF7A7FC0220FBF7EBFCE9
:1049100010BD10B501210648FBF7FBFD0C20FDF78B
:1049200095FC01210248FBF7F6FD10BD00023000A6
:10493000000C0140002C0140E001002000B587B0D0
:1049400001214FF40170FBF7F3FF4FF40040FBF738
:1049500053FF0120ADF8040000208DF8070001A9E5
:104960002348FBF729FD2348FDF758F90020029062
:104970008DF80C008DF80D004FF46020049000209D
:10498000059001208DF8180002A91A48FDF76DF96D
:1049900001211848FDF795F91648FDF7B4F900BF55
:1049A0001448FDF7B5F90028FAD11248FDF7BAF915
:1049B00000BF1048FDF7BBF90028FAD107B000BDD1
:1049C00010B504460723012221460A48FDF7E5F900
:1049D00001210848FDF7B5F900BF02210548FDF7A0
:1049E00021FB0028F9D00348FDF73EFA10BD000076
:1049F000000801400024014006488047064800475F
:104A0000FEE7FEE7FEE7FEE7FEE7FEE7FEE7FEE77E
:104A1000FEE7FEE74B210008ED00000838B504462C
:104A2000FB4890F82400C0B114B10220009001E0CE
:104A300000200090F64A1268D17BF54A526810783F
:104A40006B460122FDF76FFD10B14FF0FF3038BD0E
:104A50009DF80010EE48417423E0ED48807A10B9CB
:104A60004FF0FF30F3E724B1E948407C08B1002063
:104A7000EDE714B10120009001E000200090E44A2D
:104A80001268D17BE24A526810786B460122FDF72A
:104A90004AFD10B14FF0FF30D9E79DF80010DC4817
:104AA00041740020D3E738B5002419E0D8480068E5
:104AB000C07AA04204D0D6480068407DA04200D110
:104AC0000CE0D349496808786B4601222146FDF77E
:104AD00079FD10B14FF0FF3038BD00BF601CC4B28B
:104AE000CB4840680079A042E0DC0020F4E770B5D4
:104AF00004460D46C6480068C07AA04204D0C448A7
:104B00000068407DA04202D14FF0FF3070BDC04828
:104B100040680079A04202DC4FF0FF30F6E7BC4964
:104B2000496808782B4601222146FDF74BFDEDE749
:104B300038B50446B64890F82300A04201D10020C1
:104B400038BD14B13020009001E000200090B04842
:104B5000807C20B19DF8000040F002000090AC483D
:104B600090F8220020B19DF8000040F080000090F5
:104B7000A74A1268117DA64A526810786B46012236
:104B8000FDF7D1FC10B14FF0FF30D9E7A04880F815
:104B900023400020D4E738B5044604F0700010B17B
:104BA0000120009005E014B10020009001E04020B9
:104BB0000090974A1268917C954A526810786B462B
:104BC0000122FDF7B0FC20B1002191488172481EFE
:104BD00038BD9DF8000020F040018D480173002091
:104BE000009004F0400020B99DF8000040F004005F
:104BF000009004F0200020B99DF8000040F0020071
:104C0000009004F0100020B99DF8000040F0010071
:104C1000009004F0080020B99DF8000040F0380032
:104C200000907B4A1268D17C794A526810786B46B2
:104C30000122FDF778FC20B1002175488172481EE1
:104C4000C6E724B1082C02D00020FFF771FF70489E
:104C50008472002101753220FDF705FB0020B7E7C3
:104C600038B504466A48807CA04201D1002038BD96
:104C7000002C46D0664A12681179654A526810784D
:104C80006B460122FDF79EFC10B14FF0FF30EEE7BE
:104C90009DF8000020F0200000905D4A1268117914
:104CA0005B4A526810786B460122FDF73CFC10B15C
:104CB0004FF0FF30DBE70320FDF7D5FA022000902C
:104CC000534890F8220020B19DF8000040F0800089
:104CD00000904F4890F8230020B19DF8000040F06C
:104CE000300000904A4A1268117D494A5268107893
:104CF0006B460122FDF717FC002851D04FF0FF3022
:104D0000B5E7434A12681179414A526810786B46F8
:104D10000122FDF757FC10B14FF0FF30A7E73C48E8
:104D2000807A00F0010028B19DF8000040F02000DA
:104D3000009004E09DF8000020F020000090344A2C
:104D400012681179324A526810786B460122FDF7D9
:104D5000EAFB10B14FF0FF3089E70320FDF783FA3B
:104D60002B4890F8220010B18020009001E0002034
:104D70000090274890F8230020B19DF8000040F0F3
:104D800030000090224A1268117D214A5268107842
:104D90006B460122FDF7C7FB10B14FF0FF3066E70D
:104DA0001B488474002062E708B51948807A10B95E
:104DB0004FF0FF3008BD00200090154A1268D17BEB
:104DC000134A526810786B460122FDF7ACFB10B114
:104DD0004FF0FF30EEE70E4A126851790C4A5268E4
:104DE00010786B460122FDF79EFB10B14FF0FF30AB
:104DF000E0E7074A12681179054A526810786B4655
:104E00000122FDF790FB28B14FF0FF30D2E7000000
:104E1000E4010020F74890F82400002853D00C202B
:104E20000090F44A12681179F24A526810786B4681
:104E30000122FDF778FB10B14FF0FF30BAE73220C6
:104E4000FDF711FAC0200090EA48807A00F00100D6
:104E500020B19DF8000040F020000090E54A126863
:104E60001179E44A526810786B460122FDF75BFB2A
:104E700010B14FF0FF309DE7DE48407C10B10220BA
:104E8000009001E000200090DA4A1268D17BD94AF4
:104E9000526810786B460122FDF745FB10B14FF0C8
:104EA000FF3087E700200090D24A12685179D14A3A
:104EB000526810786B460122FDF735FB002855D06B
:104EC0004FF0FF3076E704200090CA4A126811794B
:104ED000C84A526810786B460122FDF724FB10B1D6
:104EE0004FF0FF3066E7C348807C20B9C148807A24
:104EF00000F0010010B94020009001E06020009017
:104F0000BC4A12681179BB4A526810786B4601227C
:104F1000FDF709FB10B14FF0FF304BE73220FDF7F2
:104F2000A2F9B448407C10B10120009001E00020BB
:104F30000090B04A1268D17BAE4A526810786B4636
:104F40000122FDF7F0FA10B14FF0FF3032E7A94A25
:104F500012685179A74A52681078A64B1033012283
:104F6000FDF7E1FA10B14FF0FF3023E7002021E711
:104F700070B50446002624F001049E4890F82400F1
:104F800008B1002070BD9B48807A10B94FF0FF3007
:104F9000F8E79848057C807A2040964908740846CE
:104FA000007CA04202D04FF0FF3600E0002614B98A
:104FB0009048007D18B10120FFF730FD02E000208D
:104FC000FFF72CFD3CB1FFF7EFFE20B189480574D7
:104FD0004FF0FF30D6E73046D4E738B50446854871
:104FE000807A10B94FF0FF3038BDBC2C02DB0120B5
:104FF000009015E0622C02DB0220009010E02A2CC9
:1050000002DB032000900BE0142C02DB0420009054
:1050100006E00A2C02DB0520009001E0062000904B
:105020007448C07A9DF80010884201D10020DBE767
:10503000704A126891786F4A526810786B46012264
:10504000FDF771FA10B14FF0FF30CDE79DF8001079
:105050006848C1720020C7E738B50446282C02DD35
:105060004FF0FF3038BDDCB90020FFF761FD0020B4
:105070008DF8000007208DF801005E4A1268917CCF
:105080005C4A526810786B460222FDF74CFA10B168
:105090004FF0FF30E6E70021564801750020E1E7B8
:1050A0000120FFF745FD20208DF80000012C06D1DE
:1050B00000208DF801000520FFF78FFF17E0052C79
:1050C00006DC01208DF801000520FFF786FF0EE0C9
:1050D000142C06DC02208DF801000A20FFF77DFF6A
:1050E00005E003208DF801001420FFF776FF9DF8FE
:1050F0000100072101EB8010C0B28DF801003D4A8C
:105100001268917C3B4A526810786B460222FDF788
:105110000AFA10B14FF0FF30A4E708213548817238
:1051200000210173012101750020FFF721FF0020FC
:1051300098E738B504462F48807A10B94FF0FF3011
:1051400038BD2C4890F8240010B14FF0FF30F7E73D
:105150002848007D50B134B1282C04DCE0B2FFF7C0
:105160007BFF0020ECE70020FFF776FF042C01DA3C
:10517000042404E0B4F57A7F01DD4FF47A744FF42F
:105180007A7090FBF4F0401EC0B20090194A126889
:105190005178184A526810786B460122FDF7C3F91E
:1051A00010B14FF0FF30CBE79DF80000401C4FF4EA
:1051B0007A7191FBF0F081B20E48C1810146C98934
:1051C0004810FFF70AFF0020BAE738B5044609483F
:1051D000807A10B94FF0FF3038BD022C06D0042C75
:1051E0000AD0082C0BD0102C0FD10BE0002000901F
:1051F0000EE00000E40100200820009008E01020EC
:10520000009005E01820009002E04FF0FF30E3E747
:1052100000BFF848407A9DF80010B0EBE10F01D1D3
:105220000020D9E7F34A1268D179F24A526810781F
:105230006B460122FDF777F910B14FF0FF30CBE755
:105240009DF80000C110EB4841720020C4E738B55A
:105250000446E848807A10B94FF0FF3038BDFA2C88
:1052600009D0B4F5FA7F09D0B4F57A7F09D0B4F546
:10527000FA6F0CD108E0002000900BE008200090AD
:1052800008E01020009005E01820009002E04FF0A8
:10529000FF30E3E700BFD748007A9DF80010B0EB7D
:1052A000E10F01D10020D9E7D24A12689179D14AA1
:1052B000526810786B460122FDF735F910B14FF0B6
:1052C000FF30CBE79DF80000C010CA4908720020EB
:1052D000C4E71CB580208DF80000C64A1268917C96
:1052E000C44A526810786B460122FDF71CF910B1D0
:1052F0004FF0FF301CBD6420FCF7B5FF00208DF897
:105300000000BC4A1268917CBA4A526810786B4619
:105310000122FDF708F910B14FF0FF30EAE7B54A76
:105320001268917DB34A526810786B460622FDF7E9
:1053300049F910B14FF0FF30DCE79DF80500C007D8
:10534000400F9DF8031001F0010140EA41009DF873
:10535000011001F0010140EA01048CB1012C03D1DC
:105360000121A448C17430E0022C03D10021A148DE
:10537000C1742AE0A0A0FFF70AFA4FF0FF30B9E7A6
:105380009C4A1268D1789B4A526810786B46012279
:10539000FDF718F910B14FF0FF30ABE79DF80000B2
:1053A00000F00F042CB99E48FFF7F1F94FF0FF30E1
:1053B000A0E7042C06D19BA0FFF7E9F901218D4855
:1053C000C17402E000218B48C174FF2189488172B9
:1053D000FF2088490872FF2186484172C1724FF64A
:1053E000FF71C181FF21017481740121017380F873
:1053F0002210002180F823104175017516300160DC
:1054000041608160163880F8241080F82510C1842E
:105410004FF4FA60FFF71BFF10B14FF0FF3069E760
:105420000220FFF7D2FE10B14FF0FF3062E72A20D2
:10543000FFF7D3FD10B14FF0FF305BE73220FFF7ED
:1054400078FE10B14FF0FF3054E70020FFF790FDD9
:1054500010B14FF0FF304DE70020FFF701FC10B115
:105460004FF0FF3046E70020FFF795FB002041E7B3
:105470007CB504460D465F48807A00F0700010B994
:105480004FF0FF307CBD5B4A1268117B594A52686D
:1054900010786B460622FDF795F810B14FF0FF30FB
:1054A000F0E79DF801009DF8001040EA012000B2ED
:1054B00020809DF803009DF8021040EA012000B210
:1054C00060809DF805009DF8041040EA012000B2BC
:1054D000A08015B12846FCF7D2FE0020D2E77CB5AB
:1054E00004460D464348807A00F0080010B94FF09A
:1054F000FF307CBD3F4A1268517B3E4A52681078AB
:105500006B460622FDF75EF810B14FF0FF30F0E772
:105510009DF801009DF8001040EA012000B22080B3
:105520009DF803009DF8021040EA012000B260805F
:105530009DF805009DF8041040EA012000B2A0800B
:1055400015B12846FCF79BFE0020D2E72DE9FE4F5F
:1055500005460C462748807A18B94FF0FF30BDE861
:10556000FE8F244A1268917B224A5268107802AB5F
:105570000222FDF727F810B14FF0FF30EFE79DF85A
:1055800009009DF8081040EA012006B214B1204637
:10559000FCF775FE17494968C88802F0BDFB15493C
:1055A00001904968B1F9080002F0ADFB834630462E
:1055B00002F0A9FB5946009002F0A7F98246019932
:1055C00002F0DBF981461F4902F04DF980464FF0A9
:1055D0008F4102F0A0F9074602F0B4FB28600020DA
:1055E000BDE710B588B004461CB94FF0FF3008B0D5
:1055F00010BD29E0E4010020556E737570706F7264
:1056000074656420736F6674776172652070726F61
:1056100064756374207265762025642E0A0000008C
:10562000E8A4000848616C662073656E736974694C
:1056300076697479207061727420666F756E642E5D
:105640000A00000000000C42206830B9606820B9F0
:10565000A06810B9002008B010BDFA494968087860
:1056600006AB03221146FCF7ADFF10B14FF0FF303F
:10567000F1E79DF81800082101EB201000F00F0061
:10568000ADF800009DF8190001EB201000F00F00AC
:10569000ADF802009DF81A0001EB201000F00F0099
:1056A000ADF8040020684100BDF90000403091FBD6
:1056B000F0F000B2ADF8100060684100BDF90200E2
:1056C000403091FBF0F000B2ADF81200A06841004C
:1056D000BDF90400403091FBF0F000B2ADF81400C9
:1056E000D8494968087806AB06221146FCF76AFFDC
:1056F00010B14FF0FF30AEE79DF819009DF818107B
:1057000040EA012000B2ADF808009DF81B009DF8AA
:105710001A1040EA012000B2ADF80A009DF81D0001
:105720009DF81C1040EA012000B2ADF80C00BDF855
:105730001000BDF80810084400B2ADF81000BDF824
:105740001200BDF80A10084400B2ADF81200BDF80E
:105750001400BDF80C10084400B2ADF81400BDF8F8
:105760001000000A8DF81800BDF81000C0B28DF8C6
:105770001900BDF81200000A8DF81A00BDF81200D9
:10578000C0B28DF81B00BDF81400000A8DF81C0093
:10579000BDF81400C0B28DF81D00AA494968087808
:1057A00006AB06221146FCF7BEFE10B14FF0FF30EB
:1057B00051E700204FE70146A248007A30B10128A6
:1057C00007D0022809D003280FD10AE0FA20088068
:1057D0000EE04FF4FA7008800AE04FF47A70088007
:1057E00006E04FF4FA60088002E00020088000BF65
:1057F00000BF0020704701469248407A30B101282E
:1058000007D0022808D003280CD108E00220087035
:105810000BE00420087008E00820087005E0102064
:10582000087002E04FF0FF30704700BF8548C07C31
:1058300018B108784006000E08700020F4E7014611
:105840008048C07A082817D2DFE800F01704070A5A
:105850000D101318BC20088013E06220088010E0AF
:105860002A2008800DE0142008800AE00A20088021
:1058700007E00520088004E000BF00BF002008808A
:1058800000BF00BF0020704701466E4890F824001A
:1058900010B14FF0FF3070476A48C089088000207F
:1058A000F9E7014600200880401E704701464FF08E
:1058B000FF30704701466348007A30B1012807D0B5
:1058C000022808D003280CD108E05F4808600BE0EC
:1058D0005E48086008E05E48086005E05D480860D2
:1058E00002E04FF0FF30704700BF0020FBE70146A9
:1058F0005448407A30B1012808D002280AD0032841
:1059000010D10BE04FF4804008800EE041F69C700F
:1059100008800AE04FF48050088006E04FF40060F1
:10592000088002E04FF0FF30704700BF4548C07C60
:1059300010B10888401008800020F5E70146414872
:10594000007C08700020704701463E48807A10B104
:105950000120087001E0002008700020704738B571
:1059600004463848807A10B94FF0FF3038BD354AC8
:105970001268117C334A526810786B460222FCF799
:1059800021FE10B14FF0FF30F0E79DF801009DF8C7
:10599000001040EA012000B220800020E6E72DE957
:1059A000FE4F0746884692461D46DDF830B0002679
:1059B0000024244890F8240010B1601EBDE8FE8F3A
:1059C000002028701F48807A10B94FF0FF30F5E7AB
:1059D0001C48007C10B94FF0FF30EFE71948007CFD
:1059E00000F0400008B1B01CC6B21648007C00F0C0
:1059F000200008B1B01CC6B21248007C00F01000B4
:105A000008B1B01CC6B20F48007C00F0080008B115
:105A1000B01DC6B20B4A1268917A0A4A52681078D1
:105A20006B460222FCF7CEFD10B14FF0FF30C5E708
:105A30009DF801009DF8001040EA0129B1450BDAFC
:105A40000020BBE7E4010020000003430000834284
:105A50003333034233338341FC4840684088B9EB19
:105A6000600F17DDF94A1268517CF84A52681078C5
:105A70006B460122FCF7A6FD10B14FF0FF309DE709
:105A80009DF8000000F0100020B1FFF78DF96FF0D5
:105A9000010093E75046FCF7F2FBEC4A1268D17A1A
:105AA000EA4A526810786B463246FCF78BFD10B11B
:105AB0004FF0FF3082E799FBF6F0401E8BF80000B4
:105AC00000202870B4422AD0E048007C00F0080092
:105AD00028B3601C1DF800001DF8041040EA0120E6
